{
  "_format": "hh-sol-artifact-1",
  "contractName": "ERC20MintBurnTransferContract",
  "sourceName": "contracts/ERC20MintBurnTransfer.sol",
  "abi": [
    {
      "inputs": [
        {
          "internalType": "string",
          "name": "coinName",
          "type": "string"
        },
        {
          "internalType": "string",
          "name": "ticker",
          "type": "string"
        },
        {
          "internalType": "uint256",
          "name": "initialSupply",
          "type": "uint256"
        }
      ],
      "stateMutability": "nonpayable",
      "type": "constructor"
    },
    {
      "inputs": [
        {
          "internalType": "address",
          "name": "spender",
          "type": "address"
        },
        {
          "internalType": "uint256",
          "name": "allowance",
          "type": "uint256"
        },
        {
          "internalType": "uint256",
          "name": "needed",
          "type": "uint256"
        }
      ],
      "name": "ERC20InsufficientAllowance",
      "type": "error"
    },
    {
      "inputs": [
        {
          "internalType": "address",
          "name": "sender",
          "type": "address"
        },
        {
          "internalType": "uint256",
          "name": "balance",
          "type": "uint256"
        },
        {
          "internalType": "uint256",
          "name": "needed",
          "type": "uint256"
        }
      ],
      "name": "ERC20InsufficientBalance",
      "type": "error"
    },
    {
      "inputs": [
        {
          "internalType": "address",
          "name": "approver",
          "type": "address"
        }
      ],
      "name": "ERC20InvalidApprover",
      "type": "error"
    },
    {
      "inputs": [
        {
          "internalType": "address",
          "name": "receiver",
          "type": "address"
        }
      ],
      "name": "ERC20InvalidReceiver",
      "type": "error"
    },
    {
      "inputs": [
        {
          "internalType": "address",
          "name": "sender",
          "type": "address"
        }
      ],
      "name": "ERC20InvalidSender",
      "type": "error"
    },
    {
      "inputs": [
        {
          "internalType": "address",
          "name": "spender",
          "type": "address"
        }
      ],
      "name": "ERC20InvalidSpender",
      "type": "error"
    },
    {
      "anonymous": false,
      "inputs": [
        {
          "indexed": true,
          "internalType": "address",
          "name": "owner",
          "type": "address"
        },
        {
          "indexed": true,
          "internalType": "address",
          "name": "spender",
          "type": "address"
        },
        {
          "indexed": false,
          "internalType": "uint256",
          "name": "value",
          "type": "uint256"
        }
      ],
      "name": "Approval",
      "type": "event"
    },
    {
      "anonymous": false,
      "inputs": [
        {
          "indexed": true,
          "internalType": "address",
          "name": "_to",
          "type": "address"
        },
        {
          "indexed": false,
          "internalType": "uint256",
          "name": "_amount",
          "type": "uint256"
        }
      ],
      "name": "Mint",
      "type": "event"
    },
    {
      "anonymous": false,
      "inputs": [
        {
          "indexed": true,
          "internalType": "address",
          "name": "from",
          "type": "address"
        },
        {
          "indexed": true,
          "internalType": "address",
          "name": "to",
          "type": "address"
        },
        {
          "indexed": false,
          "internalType": "uint256",
          "name": "value",
          "type": "uint256"
        }
      ],
      "name": "Transfer",
      "type": "event"
    },
    {
      "inputs": [
        {
          "internalType": "address",
          "name": "owner",
          "type": "address"
        },
        {
          "internalType": "address",
          "name": "spender",
          "type": "address"
        }
      ],
      "name": "allowance",
      "outputs": [
        {
          "internalType": "uint256",
          "name": "",
          "type": "uint256"
        }
      ],
      "stateMutability": "view",
      "type": "function"
    },
    {
      "inputs": [
        {
          "internalType": "address",
          "name": "spender",
          "type": "address"
        },
        {
          "internalType": "uint256",
          "name": "value",
          "type": "uint256"
        }
      ],
      "name": "approve",
      "outputs": [
        {
          "internalType": "bool",
          "name": "",
          "type": "bool"
        }
      ],
      "stateMutability": "nonpayable",
      "type": "function"
    },
    {
      "inputs": [
        {
          "internalType": "address",
          "name": "account",
          "type": "address"
        }
      ],
      "name": "balanceOf",
      "outputs": [
        {
          "internalType": "uint256",
          "name": "",
          "type": "uint256"
        }
      ],
      "stateMutability": "view",
      "type": "function"
    },
    {
      "inputs": [
        {
          "internalType": "uint256",
          "name": "burnAmount",
          "type": "uint256"
        }
      ],
      "name": "burnTokens",
      "outputs": [],
      "stateMutability": "nonpayable",
      "type": "function"
    },
    {
      "inputs": [],
      "name": "decimals",
      "outputs": [
        {
          "internalType": "uint8",
          "name": "",
          "type": "uint8"
        }
      ],
      "stateMutability": "view",
      "type": "function"
    },
    {
      "inputs": [],
      "name": "getOwnersAndBalances",
      "outputs": [
        {
          "internalType": "address[]",
          "name": "",
          "type": "address[]"
        },
        {
          "internalType": "uint256[]",
          "name": "",
          "type": "uint256[]"
        }
      ],
      "stateMutability": "view",
      "type": "function"
    },
    {
      "inputs": [],
      "name": "name",
      "outputs": [
        {
          "internalType": "string",
          "name": "",
          "type": "string"
        }
      ],
      "stateMutability": "view",
      "type": "function"
    },
    {
      "inputs": [],
      "name": "symbol",
      "outputs": [
        {
          "internalType": "string",
          "name": "",
          "type": "string"
        }
      ],
      "stateMutability": "view",
      "type": "function"
    },
    {
      "inputs": [],
      "name": "totalSupply",
      "outputs": [
        {
          "internalType": "uint256",
          "name": "",
          "type": "uint256"
        }
      ],
      "stateMutability": "view",
      "type": "function"
    },
    {
      "inputs": [
        {
          "internalType": "address",
          "name": "to",
          "type": "address"
        },
        {
          "internalType": "uint256",
          "name": "value",
          "type": "uint256"
        }
      ],
      "name": "transfer",
      "outputs": [
        {
          "internalType": "bool",
          "name": "",
          "type": "bool"
        }
      ],
      "stateMutability": "nonpayable",
      "type": "function"
    },
    {
      "inputs": [
        {
          "internalType": "address",
          "name": "from",
          "type": "address"
        },
        {
          "internalType": "address",
          "name": "to",
          "type": "address"
        },
        {
          "internalType": "uint256",
          "name": "value",
          "type": "uint256"
        }
      ],
      "name": "transferFrom",
      "outputs": [
        {
          "internalType": "bool",
          "name": "",
          "type": "bool"
        }
      ],
      "stateMutability": "nonpayable",
      "type": "function"
    },
    {
      "inputs": [
        {
          "internalType": "address",
          "name": "to",
          "type": "address"
        },
        {
          "internalType": "uint256",
          "name": "amount",
          "type": "uint256"
        }
      ],
      "name": "transferToken",
      "outputs": [],
      "stateMutability": "nonpayable",
      "type": "function"
    }
  ],
  "bytecode": "0x60806040523480156200001157600080fd5b50604051620011dd380380620011dd8339810160408190526200003491620002ef565b82826003620000448382620003f1565b506004620000538282620003f1565b505050620000773382670de0b6b3a7640000620000719190620004d3565b620000b5565b60405181815233907f0f6798a560793a54c3bcfe86a93cde1e73087d944c0ea20544137d41213968859060200160405180910390a250505062000509565b6001600160a01b038216620000e55760405163ec442f0560e01b8152600060048201526024015b60405180910390fd5b620000f360008383620000f7565b5050565b6001600160a01b038316620001265780600260008282546200011a9190620004f3565b909155506200019a9050565b6001600160a01b038316600090815260208190526040902054818110156200017b5760405163391434e360e21b81526001600160a01b03851660048201526024810182905260448101839052606401620000dc565b6001600160a01b03841660009081526020819052604090209082900390555b6001600160a01b038216620001b857600280548290039055620001d7565b6001600160a01b03821660009081526020819052604090208054820190555b816001600160a01b0316836001600160a01b03167fddf252ad1be2c89b69c2b068fc378daa952ba7f163c4a11628f55a4df523b3ef836040516200021d91815260200190565b60405180910390a3505050565b634e487b7160e01b600052604160045260246000fd5b600082601f8301126200025257600080fd5b81516001600160401b03808211156200026f576200026f6200022a565b604051601f8301601f19908116603f011681019082821181831017156200029a576200029a6200022a565b81604052838152602092508683858801011115620002b757600080fd5b600091505b83821015620002db5785820183015181830184015290820190620002bc565b600093810190920192909252949350505050565b6000806000606084860312156200030557600080fd5b83516001600160401b03808211156200031d57600080fd5b6200032b8783880162000240565b945060208601519150808211156200034257600080fd5b50620003518682870162000240565b925050604084015190509250925092565b600181811c908216806200037757607f821691505b6020821081036200039857634e487b7160e01b600052602260045260246000fd5b50919050565b601f821115620003ec57600081815260208120601f850160051c81016020861015620003c75750805b601f850160051c820191505b81811015620003e857828155600101620003d3565b5050505b505050565b81516001600160401b038111156200040d576200040d6200022a565b62000425816200041e845462000362565b846200039e565b602080601f8311600181146200045d5760008415620004445750858301515b600019600386901b1c1916600185901b178555620003e8565b600085815260208120601f198616915b828110156200048e578886015182559484019460019091019084016200046d565b5085821015620004ad5787850151600019600388901b60f8161c191681555b5050505050600190811b01905550565b634e487b7160e01b600052601160045260246000fd5b8082028115828204841417620004ed57620004ed620004bd565b92915050565b80820180821115620004ed57620004ed620004bd565b610cc480620005196000396000f3fe608060405234801561001057600080fd5b50600436106100b45760003560e01c80636d1b229d116100715780636d1b229d1461014357806370a082311461015657806395d89b411461017f578063a9059cbb14610187578063dd62ed3e1461019a578063fdad5652146101d357600080fd5b806306fdde03146100b9578063095ea7b3146100d75780631072cbea146100fa57806318160ddd1461010f57806323b872dd14610121578063313ce56714610134575b600080fd5b6100c16101e9565b6040516100ce91906109e4565b60405180910390f35b6100ea6100e5366004610a4e565b61027b565b60405190151581526020016100ce565b61010d610108366004610a4e565b610295565b005b6002545b6040519081526020016100ce565b6100ea61012f366004610a78565b610348565b604051601281526020016100ce565b61010d610151366004610ab4565b61036c565b610113610164366004610acd565b6001600160a01b031660009081526020819052604090205490565b6100c161038a565b6100ea610195366004610a4e565b610399565b6101136101a8366004610aef565b6001600160a01b03918216600090815260016020908152604080832093909416825291909152205490565b6101db6103a7565b6040516100ce929190610b22565b6060600380546101f890610ba6565b80601f016020809104026020016040519081016040528092919081815260200182805461022490610ba6565b80156102715780601f1061024657610100808354040283529160200191610271565b820191906000526020600020905b81548152906001019060200180831161025457829003601f168201915b5050505050905090565b6000336102898185856104d5565b60019150505b92915050565b6102ab8261019583670de0b6b3a7640000610bf6565b506040518181526001600160a01b0383169033907fddf252ad1be2c89b69c2b068fc378daa952ba7f163c4a11628f55a4df523b3ef9060200160405180910390a36103213361030283670de0b6b3a7640000610bf6565b3360009081526020819052604090205461031c9190610c0d565b6104e7565b6103448261031c846001600160a01b031660009081526020819052604090205490565b5050565b6000336103568582856106cd565b610361858585610750565b506001949350505050565b6103873361038283670de0b6b3a7640000610bf6565b6107af565b50565b6060600480546101f890610ba6565b600033610289818585610750565b606080600060078054905067ffffffffffffffff8111156103ca576103ca610c20565b6040519080825280602002602001820160405280156103f3578160200160208202803683370190505b50905060005b60075481101561046c5761043d6007828154811061041957610419610c36565b60009182526020808320909101546001600160a01b03168252819052604090205490565b82828151811061044f5761044f610c36565b60209081029190910101528061046481610c4c565b9150506103f9565b50600781818054806020026020016040519081016040528092919081815260200182805480156104c557602002820191906000526020600020905b81546001600160a01b031681526001909101906020018083116104a7575b5050505050915092509250509091565b6104e283838360016107e5565b505050565b60008111801561051057506001600160a01b03821660009081526006602052604090205460ff16155b1561057c57506001600160a01b03166000818152600660205260408120805460ff191660019081179091556007805491820181559091527fa66cc928b5edb82af9bd49922954155ab7b0942694bea4ce44661d9a8736c6880180546001600160a01b0319169091179055565b801580156105a257506001600160a01b03821660009081526006602052604090205460ff165b15610344576001600160a01b0382166000908152600660205260408120805460ff191690555b6007548110156104e257826001600160a01b0316600782815481106105ef576105ef610c36565b6000918252602090912001546001600160a01b0316036106bb576007805461061990600190610c0d565b8154811061062957610629610c36565b600091825260209091200154600780546001600160a01b03909216918390811061065557610655610c36565b9060005260206000200160006101000a8154816001600160a01b0302191690836001600160a01b03160217905550600780548061069457610694610c65565b600082815260209020810160001990810180546001600160a01b0319169055019055505050565b806106c581610c4c565b9150506105c8565b6001600160a01b03838116600090815260016020908152604080832093861683529290522054600019811461074a578181101561073b57604051637dc7a0d960e11b81526001600160a01b038416600482015260248101829052604481018390526064015b60405180910390fd5b61074a848484840360006107e5565b50505050565b6001600160a01b03831661077a57604051634b637e8f60e11b815260006004820152602401610732565b6001600160a01b0382166107a45760405163ec442f0560e01b815260006004820152602401610732565b6104e28383836108ba565b6001600160a01b0382166107d957604051634b637e8f60e11b815260006004820152602401610732565b610344826000836108ba565b6001600160a01b03841661080f5760405163e602df0560e01b815260006004820152602401610732565b6001600160a01b03831661083957604051634a1406b160e11b815260006004820152602401610732565b6001600160a01b038085166000908152600160209081526040808320938716835292905220829055801561074a57826001600160a01b0316846001600160a01b03167f8c5be1e5ebec7d5bd14f71427d1e84f3dd0314c0f7b2291e5b200ac8c7c3b925846040516108ac91815260200190565b60405180910390a350505050565b6001600160a01b0383166108e55780600260008282546108da9190610c7b565b909155506109579050565b6001600160a01b038316600090815260208190526040902054818110156109385760405163391434e360e21b81526001600160a01b03851660048201526024810182905260448101839052606401610732565b6001600160a01b03841660009081526020819052604090209082900390555b6001600160a01b03821661097357600280548290039055610992565b6001600160a01b03821660009081526020819052604090208054820190555b816001600160a01b0316836001600160a01b03167fddf252ad1be2c89b69c2b068fc378daa952ba7f163c4a11628f55a4df523b3ef836040516109d791815260200190565b60405180910390a3505050565b600060208083528351808285015260005b81811015610a11578581018301518582016040015282016109f5565b506000604082860101526040601f19601f8301168501019250505092915050565b80356001600160a01b0381168114610a4957600080fd5b919050565b60008060408385031215610a6157600080fd5b610a6a83610a32565b946020939093013593505050565b600080600060608486031215610a8d57600080fd5b610a9684610a32565b9250610aa460208501610a32565b9150604084013590509250925092565b600060208284031215610ac657600080fd5b5035919050565b600060208284031215610adf57600080fd5b610ae882610a32565b9392505050565b60008060408385031215610b0257600080fd5b610b0b83610a32565b9150610b1960208401610a32565b90509250929050565b604080825283519082018190526000906020906060840190828701845b82811015610b645781516001600160a01b031684529284019290840190600101610b3f565b5050508381038285015284518082528583019183019060005b81811015610b9957835183529284019291840191600101610b7d565b5090979650505050505050565b600181811c90821680610bba57607f821691505b602082108103610bda57634e487b7160e01b600052602260045260246000fd5b50919050565b634e487b7160e01b600052601160045260246000fd5b808202811582820484141761028f5761028f610be0565b8181038181111561028f5761028f610be0565b634e487b7160e01b600052604160045260246000fd5b634e487b7160e01b600052603260045260246000fd5b600060018201610c5e57610c5e610be0565b5060010190565b634e487b7160e01b600052603160045260246000fd5b8082018082111561028f5761028f610be056fea26469706673582212204a08dbf012b23c60e71c874972060026391a0281ecab42129fdbdd8469e790b364736f6c63430008140033",
  "linkReferences": {},
  "deployedLinkReferences": {}
}